{
  "contractName": "MultiSignature",
  "abi": [
    {
      "inputs": [
        {
          "internalType": "address[]",
          "name": "_approvers",
          "type": "address[]"
        },
        {
          "internalType": "uint256",
          "name": "_quorum",
          "type": "uint256"
        }
      ],
      "stateMutability": "nonpayable",
      "type": "constructor"
    },
    {
      "inputs": [
        {
          "internalType": "uint256",
          "name": "",
          "type": "uint256"
        }
      ],
      "name": "approvers",
      "outputs": [
        {
          "internalType": "address",
          "name": "",
          "type": "address"
        }
      ],
      "stateMutability": "view",
      "type": "function"
    },
    {
      "inputs": [
        {
          "internalType": "address",
          "name": "",
          "type": "address"
        },
        {
          "internalType": "address",
          "name": "",
          "type": "address"
        }
      ],
      "name": "isApproved",
      "outputs": [
        {
          "internalType": "bool",
          "name": "",
          "type": "bool"
        }
      ],
      "stateMutability": "view",
      "type": "function"
    },
    {
      "inputs": [],
      "name": "quorum",
      "outputs": [
        {
          "internalType": "uint256",
          "name": "",
          "type": "uint256"
        }
      ],
      "stateMutability": "view",
      "type": "function"
    },
    {
      "inputs": [
        {
          "internalType": "address",
          "name": "targetContract",
          "type": "address"
        },
        {
          "internalType": "bytes",
          "name": "functionData",
          "type": "bytes"
        }
      ],
      "name": "requestApproval",
      "outputs": [],
      "stateMutability": "nonpayable",
      "type": "function"
    }
  ],
  "bytecode": "0x608060405234801561001057600080fd5b5060405161096a38038061096a8339818101604052604081101561003357600080fd5b810190808051604051939291908464010000000082111561005357600080fd5b8382019150602082018581111561006957600080fd5b825186602082028301116401000000008211171561008657600080fd5b8083526020830192505050908051906020019060200280838360005b838110156100bd5780820151818401526020810190506100a2565b505050509050016040526020018051906020019092919050505081600090805190602001906100ed9291906100fc565b508060018190555050506101a3565b828054828255906000526020600020908101928215610175579160200282015b828111156101745782518260006101000a81548173ffffffffffffffffffffffffffffffffffffffff021916908373ffffffffffffffffffffffffffffffffffffffff1602179055509160200191906001019061011c565b5b5090506101829190610186565b5090565b5b8082111561019f576000816000905550600101610187565b5090565b6107b8806101b26000396000f3fe608060405234801561001057600080fd5b506004361061004c5760003560e01c80631703a01814610051578063a389783e1461006f578063c9d2137a146100e9578063d3650fb8146101c4575b600080fd5b61005961021c565b6040518082815260200191505060405180910390f35b6100d16004803603604081101561008557600080fd5b81019080803573ffffffffffffffffffffffffffffffffffffffff169060200190929190803573ffffffffffffffffffffffffffffffffffffffff169060200190929190505050610222565b60405180821515815260200191505060405180910390f35b6101c2600480360360408110156100ff57600080fd5b81019080803573ffffffffffffffffffffffffffffffffffffffff1690602001909291908035906020019064010000000081111561013c57600080fd5b82018360208201111561014e57600080fd5b8035906020019184600183028401116401000000008311171561017057600080fd5b91908080601f016020809104026020016040519081016040528093929190818152602001838380828437600081840152601f19601f820116905080830192505050505050509192919290505050610251565b005b6101f0600480360360208110156101da57600080fd5b8101908080359060200190929190505050610743565b604051808273ffffffffffffffffffffffffffffffffffffffff16815260200191505060405180910390f35b60015481565b60026020528160005260406000206020528060005260406000206000915091509054906101000a900460ff1681565b60001515600260003373ffffffffffffffffffffffffffffffffffffffff1673ffffffffffffffffffffffffffffffffffffffff16815260200190815260200160002060008473ffffffffffffffffffffffffffffffffffffffff1673ffffffffffffffffffffffffffffffffffffffff16815260200190815260200160002060009054906101000a900460ff16151514610354576040517f08c379a00000000000000000000000000000000000000000000000000000000081526004018080602001828103825260108152602001807f416c726561647920617070726f7665640000000000000000000000000000000081525060200191505060405180910390fd5b600060028383604051602001808373ffffffffffffffffffffffffffffffffffffffff1660601b815260140182805190602001908083835b602083106103af578051825260208201915060208101905060208303925061038c565b6001836020036101000a038019825116818451168082178552505050505050905001925050506040516020818303038152906040526040518082805190602001908083835b6020831061041757805182526020820191506020810190506020830392506103f4565b6001836020036101000a038019825116818451168082178552505050505050905001915050602060405180830381855afa158015610459573d6000803e3d6000fd5b5050506040513d602081101561046e57600080fd5b810190808051906020019092919050505090506001600260003373ffffffffffffffffffffffffffffffffffffffff1673ffffffffffffffffffffffffffffffffffffffff16815260200190815260200160002060008573ffffffffffffffffffffffffffffffffffffffff1673ffffffffffffffffffffffffffffffffffffffff16815260200190815260200160002060006101000a81548160ff0219169083151502179055506000805b60008054905081101561073c576002600080838154811061053757fe5b9060005260206000200160009054906101000a900473ffffffffffffffffffffffffffffffffffffffff1673ffffffffffffffffffffffffffffffffffffffff1673ffffffffffffffffffffffffffffffffffffffff16815260200190815260200160002060008673ffffffffffffffffffffffffffffffffffffffff1673ffffffffffffffffffffffffffffffffffffffff16815260200190815260200160002060009054906101000a900460ff161561072f578180600101925050600154821061072e5760008573ffffffffffffffffffffffffffffffffffffffff16856040518082805190602001908083835b6020831061064a5780518252602082019150602081019050602083039250610627565b6001836020036101000a0380198251168184511680821785525050505050509050019150506000604051808303816000865af19150503d80600081146106ac576040519150601f19603f3d011682016040523d82523d6000602084013e6106b1565b606091505b5050905080610728576040517f08c379a00000000000000000000000000000000000000000000000000000000081526004018080602001828103825260198152602001807f46756e6374696f6e20657865637574696f6e206661696c65640000000000000081525060200191505060405180910390fd5b5061073c565b5b808060010191505061051a565b5050505050565b6000818154811061075357600080fd5b906000526020600020016000915054906101000a900473ffffffffffffffffffffffffffffffffffffffff168156fea2646970667358221220b515adbd074725a9e39867bc9b45c46a0451277351b20c4a33bf8079340356e564736f6c63430007060033",
  "immutableReferences": {},
  "source": "// SPDX-License-Identifier: MIT\r\npragma solidity >=0.6.0 <0.8.0;\r\n\r\nimport \"./Token.sol\";\r\n\r\ncontract MultiSignature {\r\n    // Define a separate contract for multi-signature functionality\r\n    address[] public approvers;\r\n    uint public quorum;\r\n\r\n    mapping(address => mapping(address => bool)) public isApproved;\r\n\r\n    constructor(address[] memory _approvers, uint _quorum) {\r\n        approvers = _approvers;\r\n        quorum = _quorum;\r\n    }\r\n\r\n    function requestApproval(address targetContract, bytes memory functionData) public {\r\n        require(isApproved[msg.sender][targetContract] == false, \"Already approved\");\r\n\r\n        // Simplified hash function for brevity, use keccak256 in production\r\n        bytes32 proposalHash = sha256(abi.encodePacked(targetContract, functionData));\r\n\r\n        // Mark the sender as having approved this proposal\r\n        isApproved[msg.sender][targetContract] = true;\r\n\r\n        // Check if quorum has been reached\r\n        uint approvalCount = 0;\r\n        for (uint i = 0; i < approvers.length; i++) {\r\n            if (isApproved[approvers[i]][targetContract]) {\r\n                approvalCount++;\r\n                if (approvalCount >= quorum) {\r\n                    // Execute the function on the target contract\r\n                    (bool success, ) = targetContract.call(functionData);\r\n                    require(success, \"Function execution failed\");\r\n                    break;\r\n                }\r\n            }\r\n        }\r\n    }\r\n}\r\n\r\ncontract dBank {\r\n    Token private token;\r\n\r\n    // Multi-signature contract address and quorum\r\n    address public multiSignatureContract;\r\n    uint public quorum;\r\n\r\n    // Existing mappings and events\r\n    mapping(address => uint) public depositStart;\r\n    mapping(address => uint) public etherBalanceOf;\r\n    // ...\r\n\r\n    constructor(Token _token, address _multiSignatureContract, uint _quorum) public {\r\n        token = _token;\r\n        multiSignatureContract = _multiSignatureContract;\r\n        quorum = _quorum;\r\n    }\r\n\r\n    // Function to request multi-signature approval for changing interest rate\r\n    function requestInterestRateChange(uint newInterestRate) public {\r\n        // Construct function data for the changeInterestRate function\r\n        bytes memory functionData = abi.encodeWithSignature(\"changeInterestRate(uint256)\", newInterestRate);\r\n\r\n        // Request approval through the multi-signature contract\r\n        MultiSignature(multiSignatureContract).requestApproval(address(this), functionData);\r\n    }\r\n}",
  "sourcePath": "C:/Users/DerkeXue/Documents/adir/SUTD/LabProject/P2/dbank/src/contracts/dBank.sol",
  "compiler": {
    "name": "solc",
    "version": "0.7.6+commit.7338295f.Emscripten.clang"
  },
  "schemaVersion": "3.2.3",
  "updatedAt": "2023-08-09T05:54:19.185Z",
  "devdoc": {
    "kind": "dev",
    "methods": {},
    "version": 1
  },
  "userdoc": {
    "kind": "user",
    "methods": {},
    "version": 1
  }
}